{
  "_format": "hh3-artifact-1",
  "contractName": "FluxVault",
  "sourceName": "contracts/FluxVault.sol",
  "abi": [
    {
      "inputs": [
        {
          "internalType": "uint256",
          "name": "_initialThreshold",
          "type": "uint256"
        },
        {
          "internalType": "address",
          "name": "_coldStorageWallet",
          "type": "address"
        }
      ],
      "stateMutability": "nonpayable",
      "type": "constructor"
    },
    {
      "inputs": [],
      "name": "EnforcedPause",
      "type": "error"
    },
    {
      "inputs": [],
      "name": "ExpectedPause",
      "type": "error"
    },
    {
      "inputs": [],
      "name": "ReentrancyGuardReentrantCall",
      "type": "error"
    },
    {
      "anonymous": false,
      "inputs": [
        {
          "indexed": false,
          "internalType": "enum FluxVault.DefconLevel",
          "name": "newLevel",
          "type": "uint8"
        },
        {
          "indexed": false,
          "internalType": "uint256",
          "name": "triggerAmount",
          "type": "uint256"
        },
        {
          "indexed": true,
          "internalType": "address",
          "name": "attacker",
          "type": "address"
        },
        {
          "indexed": false,
          "internalType": "uint256",
          "name": "timestamp",
          "type": "uint256"
        },
        {
          "indexed": false,
          "internalType": "string",
          "name": "reason",
          "type": "string"
        }
      ],
      "name": "DefconChanged",
      "type": "event"
    },
    {
      "anonymous": false,
      "inputs": [
        {
          "indexed": true,
          "internalType": "address",
          "name": "user",
          "type": "address"
        },
        {
          "indexed": false,
          "internalType": "uint256",
          "name": "amount",
          "type": "uint256"
        },
        {
          "indexed": false,
          "internalType": "uint256",
          "name": "timestamp",
          "type": "uint256"
        }
      ],
      "name": "Deposited",
      "type": "event"
    },
    {
      "anonymous": false,
      "inputs": [
        {
          "indexed": false,
          "internalType": "uint256",
          "name": "rescuedAmount",
          "type": "uint256"
        },
        {
          "indexed": false,
          "internalType": "address",
          "name": "destination",
          "type": "address"
        },
        {
          "indexed": false,
          "internalType": "uint256",
          "name": "timestamp",
          "type": "uint256"
        }
      ],
      "name": "EmergencyRescueExecuted",
      "type": "event"
    },
    {
      "anonymous": false,
      "inputs": [
        {
          "indexed": false,
          "internalType": "address",
          "name": "account",
          "type": "address"
        }
      ],
      "name": "Paused",
      "type": "event"
    },
    {
      "anonymous": false,
      "inputs": [
        {
          "indexed": false,
          "internalType": "uint256",
          "name": "newThreshold",
          "type": "uint256"
        }
      ],
      "name": "ThresholdUpdated",
      "type": "event"
    },
    {
      "anonymous": false,
      "inputs": [
        {
          "indexed": false,
          "internalType": "address",
          "name": "account",
          "type": "address"
        }
      ],
      "name": "Unpaused",
      "type": "event"
    },
    {
      "anonymous": false,
      "inputs": [
        {
          "indexed": false,
          "internalType": "uint256",
          "name": "availableAtTime",
          "type": "uint256"
        }
      ],
      "name": "VaultResetInitiated",
      "type": "event"
    },
    {
      "anonymous": false,
      "inputs": [
        {
          "indexed": true,
          "internalType": "address",
          "name": "user",
          "type": "address"
        },
        {
          "indexed": false,
          "internalType": "uint256",
          "name": "amount",
          "type": "uint256"
        },
        {
          "indexed": false,
          "internalType": "uint256",
          "name": "timestamp",
          "type": "uint256"
        }
      ],
      "name": "Withdrawn",
      "type": "event"
    },
    {
      "stateMutability": "payable",
      "type": "fallback"
    },
    {
      "inputs": [],
      "name": "LOCK_COOLDOWN",
      "outputs": [
        {
          "internalType": "uint256",
          "name": "",
          "type": "uint256"
        }
      ],
      "stateMutability": "view",
      "type": "function"
    },
    {
      "inputs": [],
      "name": "SOMNIA_SYSTEM_ADDRESS",
      "outputs": [
        {
          "internalType": "address",
          "name": "",
          "type": "address"
        }
      ],
      "stateMutability": "view",
      "type": "function"
    },
    {
      "inputs": [],
      "name": "coldStorageWallet",
      "outputs": [
        {
          "internalType": "address",
          "name": "",
          "type": "address"
        }
      ],
      "stateMutability": "view",
      "type": "function"
    },
    {
      "inputs": [],
      "name": "currentDefcon",
      "outputs": [
        {
          "internalType": "enum FluxVault.DefconLevel",
          "name": "",
          "type": "uint8"
        }
      ],
      "stateMutability": "view",
      "type": "function"
    },
    {
      "inputs": [],
      "name": "deposit",
      "outputs": [],
      "stateMutability": "payable",
      "type": "function"
    },
    {
      "inputs": [],
      "name": "manualPause",
      "outputs": [],
      "stateMutability": "nonpayable",
      "type": "function"
    },
    {
      "inputs": [
        {
          "internalType": "bytes32",
          "name": "subscriptionId",
          "type": "bytes32"
        },
        {
          "internalType": "bytes",
          "name": "data",
          "type": "bytes"
        }
      ],
      "name": "onEvent",
      "outputs": [],
      "stateMutability": "nonpayable",
      "type": "function"
    },
    {
      "inputs": [],
      "name": "owner",
      "outputs": [
        {
          "internalType": "address",
          "name": "",
          "type": "address"
        }
      ],
      "stateMutability": "view",
      "type": "function"
    },
    {
      "inputs": [],
      "name": "panicRescue",
      "outputs": [],
      "stateMutability": "nonpayable",
      "type": "function"
    },
    {
      "inputs": [],
      "name": "paused",
      "outputs": [
        {
          "internalType": "bool",
          "name": "",
          "type": "bool"
        }
      ],
      "stateMutability": "view",
      "type": "function"
    },
    {
      "inputs": [],
      "name": "resetVault",
      "outputs": [],
      "stateMutability": "nonpayable",
      "type": "function"
    },
    {
      "inputs": [],
      "name": "threatThreshold",
      "outputs": [
        {
          "internalType": "uint256",
          "name": "",
          "type": "uint256"
        }
      ],
      "stateMutability": "view",
      "type": "function"
    },
    {
      "inputs": [],
      "name": "unlockTime",
      "outputs": [
        {
          "internalType": "uint256",
          "name": "",
          "type": "uint256"
        }
      ],
      "stateMutability": "view",
      "type": "function"
    },
    {
      "inputs": [
        {
          "internalType": "address",
          "name": "_newColdStorage",
          "type": "address"
        }
      ],
      "name": "updateColdStorage",
      "outputs": [],
      "stateMutability": "nonpayable",
      "type": "function"
    },
    {
      "inputs": [
        {
          "internalType": "uint256",
          "name": "_newThreshold",
          "type": "uint256"
        }
      ],
      "name": "updateThreshold",
      "outputs": [],
      "stateMutability": "nonpayable",
      "type": "function"
    },
    {
      "inputs": [
        {
          "internalType": "uint256",
          "name": "amount",
          "type": "uint256"
        }
      ],
      "name": "withdraw",
      "outputs": [],
      "stateMutability": "nonpayable",
      "type": "function"
    },
    {
      "stateMutability": "payable",
      "type": "receive"
    }
  ],
  "bytecode": "0x608060405234801561000f575f5ffd5b5060405161201e38038061201e833981810160405281019061003191906101cf565b600161004f61004461010c60201b60201c565b61013560201b60201c565b5f0181905550335f60016101000a81548173ffffffffffffffffffffffffffffffffffffffff021916908373ffffffffffffffffffffffffffffffffffffffff1602179055508060015f6101000a81548173ffffffffffffffffffffffffffffffffffffffff021916908373ffffffffffffffffffffffffffffffffffffffff160217905550816002819055505f60045f6101000a81548160ff02191690836003811115610100576100ff61020d565b5b0217905550505061023a565b5f7f9b779b17422d0df92223018b32b4d1fa46e071723d6817e2486d003becc55f005f1b905090565b5f819050919050565b5f5ffd5b5f819050919050565b61015481610142565b811461015e575f5ffd5b50565b5f8151905061016f8161014b565b92915050565b5f73ffffffffffffffffffffffffffffffffffffffff82169050919050565b5f61019e82610175565b9050919050565b6101ae81610194565b81146101b8575f5ffd5b50565b5f815190506101c9816101a5565b92915050565b5f5f604083850312156101e5576101e461013e565b5b5f6101f285828601610161565b9250506020610203858286016101bb565b9150509250929050565b7f4e487b71000000000000000000000000000000000000000000000000000000005f52602160045260245ffd5b611dd7806102475f395ff3fe6080604052600436106100f6575f3560e01c80638da5cb5b11610089578063c402d26911610058578063c402d26914610379578063cd94b54b146103a3578063d0e30db0146103b9578063d7d7442f146103c357610155565b80638da5cb5b146102e7578063978e127f14610311578063b263a1db1461033b578063b59be2b61461035157610155565b806351e37cab116100c557806351e37cab1461023f5780635c87ee84146102695780635c975abb1461029357806379c92764146102bd57610155565b806305e2e362146101af578063251c1aa3146101d75780632e1a7d4d146102015780634a3fa16d1461022957610155565b36610155576101036103eb565b3373ffffffffffffffffffffffffffffffffffffffff167f73a19dd210f1a7f902193214c0ee91dd35ee5b4d920cba8d519eca65a7b488ca344260405161014b929190611386565b60405180910390a2005b61015d6103eb565b3373ffffffffffffffffffffffffffffffffffffffff167f73a19dd210f1a7f902193214c0ee91dd35ee5b4d920cba8d519eca65a7b488ca34426040516101a5929190611386565b60405180910390a2005b3480156101ba575f5ffd5b506101d560048036038101906101d09190611449565b61042c565b005b3480156101e2575f5ffd5b506101eb61043c565b6040516101f891906114a6565b60405180910390f35b34801561020c575f5ffd5b50610227600480360381019061022291906114e9565b610442565b005b348015610234575f5ffd5b5061023d6107fa565b005b34801561024a575f5ffd5b5061025361090a565b60405161026091906114a6565b60405180910390f35b348015610274575f5ffd5b5061027d610910565b60405161028a91906114a6565b60405180910390f35b34801561029e575f5ffd5b506102a7610917565b6040516102b4919061152e565b60405180910390f35b3480156102c8575f5ffd5b506102d161092b565b6040516102de9190611586565b60405180910390f35b3480156102f2575f5ffd5b506102fb610950565b6040516103089190611586565b60405180910390f35b34801561031c575f5ffd5b50610325610975565b6040516103329190611612565b60405180910390f35b348015610346575f5ffd5b5061034f610987565b005b34801561035c575f5ffd5b5061037760048036038101906103729190611655565b610a72565b005b348015610384575f5ffd5b5061038d610b44565b60405161039a9190611586565b60405180910390f35b3480156103ae575f5ffd5b506103b7610b5c565b005b6103c1610bf5565b005b3480156103ce575f5ffd5b506103e960048036038101906103e491906114e9565b610c4f565b005b6103f3610917565b1561042a576040517fd93c066500000000000000000000000000000000000000000000000000000000815260040160405180910390fd5b565b610437838383610d1f565b505050565b60035481565b5f60019054906101000a900473ffffffffffffffffffffffffffffffffffffffff1673ffffffffffffffffffffffffffffffffffffffff163373ffffffffffffffffffffffffffffffffffffffff16146104d1576040517f08c379a00000000000000000000000000000000000000000000000000000000081526004016104c8906116da565b60405180910390fd5b6104d9610f46565b6104e16103eb565b5f60038111156104f4576104f361159f565b5b60045f9054906101000a900460ff1660038111156105155761051461159f565b5b14801561052357505f600354115b1561056e5760035442101561056d576040517f08c379a000000000000000000000000000000000000000000000000000000000815260040161056490611768565b60405180910390fd5b5b80600260038111156105835761058261159f565b5b60045f9054906101000a900460ff1660038111156105a4576105a361159f565b5b141580156105e457506003808111156105c0576105bf61159f565b5b60045f9054906101000a900460ff1660038111156105e1576105e061159f565b5b14155b610623576040517f08c379a000000000000000000000000000000000000000000000000000000000815260040161061a906117f6565b60405180910390fd5b600160038111156106375761063661159f565b5b60045f9054906101000a900460ff1660038111156106585761065761159f565b5b036106b2575f600a4761066b919061186e565b9050808211156106b0576040517f08c379a00000000000000000000000000000000000000000000000000000000081526004016106a79061190e565b60405180910390fd5b505b814710156106f5576040517f08c379a00000000000000000000000000000000000000000000000000000000081526004016106ec90611976565b60405180910390fd5b5f3373ffffffffffffffffffffffffffffffffffffffff168360405161071a906119c1565b5f6040518083038185875af1925050503d805f8114610754576040519150601f19603f3d011682016040523d82523d5f602084013e610759565b606091505b505090508061079d576040517f08c379a000000000000000000000000000000000000000000000000000000000815260040161079490611a1f565b60405180910390fd5b3373ffffffffffffffffffffffffffffffffffffffff167f92ccf450a286a957af52509bc1c9939d1a6a481783e142e41e2499f0bb66ebc684426040516107e5929190611386565b60405180910390a250506107f7610f68565b50565b5f60019054906101000a900473ffffffffffffffffffffffffffffffffffffffff1673ffffffffffffffffffffffffffffffffffffffff163373ffffffffffffffffffffffffffffffffffffffff1614610889576040517f08c379a0000000000000000000000000000000000000000000000000000000008152600401610880906116da565b60405180910390fd5b5f60045f6101000a81548160ff021916908360038111156108ad576108ac61159f565b5b021790555062015180426108c19190611a3d565b6003819055506108cf610f82565b7f38d46763e9bb19d0e9418e05fa993730d32e63f5532ef43f4634643be1ea229f60035460405161090091906114a6565b60405180910390a1565b60025481565b6201518081565b5f5f5f9054906101000a900460ff16905090565b60015f9054906101000a900473ffffffffffffffffffffffffffffffffffffffff1681565b5f60019054906101000a900473ffffffffffffffffffffffffffffffffffffffff1681565b60045f9054906101000a900460ff1681565b5f60019054906101000a900473ffffffffffffffffffffffffffffffffffffffff1673ffffffffffffffffffffffffffffffffffffffff163373ffffffffffffffffffffffffffffffffffffffff1614610a16576040517f08c379a0000000000000000000000000000000000000000000000000000000008152600401610a0d906116da565b60405180910390fd5b610a1e610f46565b610a6060035f336040518060400160405280601681526020017f4d616e75616c2050616e69632054726967676572656400000000000000000000815250610fe2565b610a686110a8565b610a70610f68565b565b5f60019054906101000a900473ffffffffffffffffffffffffffffffffffffffff1673ffffffffffffffffffffffffffffffffffffffff163373ffffffffffffffffffffffffffffffffffffffff1614610b01576040517f08c379a0000000000000000000000000000000000000000000000000000000008152600401610af8906116da565b60405180910390fd5b8060015f6101000a81548173ffffffffffffffffffffffffffffffffffffffff021916908373ffffffffffffffffffffffffffffffffffffffff16021790555050565b73841b8199e6d3db3c6f264f6c2bd8848b3ca6422381565b5f60019054906101000a900473ffffffffffffffffffffffffffffffffffffffff1673ffffffffffffffffffffffffffffffffffffffff163373ffffffffffffffffffffffffffffffffffffffff1614610beb576040517f08c379a0000000000000000000000000000000000000000000000000000000008152600401610be2906116da565b60405180910390fd5b610bf3611237565b565b610bfd6103eb565b3373ffffffffffffffffffffffffffffffffffffffff167f73a19dd210f1a7f902193214c0ee91dd35ee5b4d920cba8d519eca65a7b488ca3442604051610c45929190611386565b60405180910390a2565b5f60019054906101000a900473ffffffffffffffffffffffffffffffffffffffff1673ffffffffffffffffffffffffffffffffffffffff163373ffffffffffffffffffffffffffffffffffffffff1614610cde576040517f08c379a0000000000000000000000000000000000000000000000000000000008152600401610cd5906116da565b60405180910390fd5b806002819055507fadfa8ecb21b6962ebcd0adbd9ab985b7b4c5b5eb3b0dead683171565c7bfe17181604051610d1491906114a6565b60405180910390a150565b73841b8199e6d3db3c6f264f6c2bd8848b3ca6422373ffffffffffffffffffffffffffffffffffffffff163373ffffffffffffffffffffffffffffffffffffffff1614610da1576040517f08c379a0000000000000000000000000000000000000000000000000000000008152600401610d9890611aba565b60405180910390fd5b3373ffffffffffffffffffffffffffffffffffffffff163273ffffffffffffffffffffffffffffffffffffffff1603610e0f576040517f08c379a0000000000000000000000000000000000000000000000000000000008152600401610e0690611b48565b60405180910390fd5b5f5f5f905060608484905010610e3d578383810190610e2e9190611ba1565b90508093508192505050610e4f565b8383810190610e4c91906114e9565b91505b6005600254610e5e9190611bf1565b8210610e9657610e8960038383604051806060016040528060288152602001611d7a60289139610fe2565b610e916110a8565b610f3f565b60028054610ea49190611bf1565b8210610ef157610eec600283836040518060400160405280601d81526020017f484947483a204578706c6f6974205369676e6174757265204d61746368000000815250610fe2565b610f3e565b6002548210610f3d57610f3c600183836040518060400160405280601f81526020017f454c4556415445443a20486967682d566f6c756d6520416e6f6d616c69657300815250610fe2565b5b5b5b5050505050565b610f4e611298565b6002610f60610f5b6112d9565b611302565b5f0181905550565b6001610f7a610f756112d9565b611302565b5f0181905550565b610f8a61130b565b5f5f5f6101000a81548160ff0219169083151502179055507f5db9ee0a495bf2e6ff9c91a7834c1ba4fdd244a5e8aa4e537bd38aeae4b073aa610fcb61134b565b604051610fd89190611586565b60405180910390a1565b60045f9054906101000a900460ff1660038111156110035761100261159f565b5b8460038111156110165761101561159f565b5b11156110a2578360045f6101000a81548160ff021916908360038111156110405761103f61159f565b5b021790555061104d611237565b8173ffffffffffffffffffffffffffffffffffffffff167f0b9f8f599f7f231207668d8959f17be3bbb228535cc70f8a693638c1d1892938858542856040516110999493929190611c92565b60405180910390a25b50505050565b5f4790505f8111801561110857505f73ffffffffffffffffffffffffffffffffffffffff1660015f9054906101000a900473ffffffffffffffffffffffffffffffffffffffff1673ffffffffffffffffffffffffffffffffffffffff1614155b15611234575f60015f9054906101000a900473ffffffffffffffffffffffffffffffffffffffff1673ffffffffffffffffffffffffffffffffffffffff1682604051611153906119c1565b5f6040518083038185875af1925050503d805f811461118d576040519150601f19603f3d011682016040523d82523d5f602084013e611192565b606091505b50509050806111d6576040517f08c379a00000000000000000000000000000000000000000000000000000000081526004016111cd90611d26565b60405180910390fd5b7f6d41b626df4b649e55291f2e4af86df8ae183c4aa3c2d98c7c949446680d767d8260015f9054906101000a900473ffffffffffffffffffffffffffffffffffffffff164260405161122a93929190611d44565b60405180910390a1505b50565b61123f6103eb565b60015f5f6101000a81548160ff0219169083151502179055507f62e78cea01bee320cd4e420270b5ea74000d11b0c9f74754ebdbfc544b05a25861128161134b565b60405161128e9190611586565b60405180910390a1565b6112a0611352565b156112d7576040517f3ee5aeb500000000000000000000000000000000000000000000000000000000815260040160405180910390fd5b565b5f7f9b779b17422d0df92223018b32b4d1fa46e071723d6817e2486d003becc55f005f1b905090565b5f819050919050565b611313610917565b611349576040517f8dfc202b00000000000000000000000000000000000000000000000000000000815260040160405180910390fd5b565b5f33905090565b5f60026113656113606112d9565b611302565b5f015414905090565b5f819050919050565b6113808161136e565b82525050565b5f6040820190506113995f830185611377565b6113a66020830184611377565b9392505050565b5f5ffd5b5f5ffd5b5f819050919050565b6113c7816113b5565b81146113d1575f5ffd5b50565b5f813590506113e2816113be565b92915050565b5f5ffd5b5f5ffd5b5f5ffd5b5f5f83601f840112611409576114086113e8565b5b8235905067ffffffffffffffff811115611426576114256113ec565b5b602083019150836001820283011115611442576114416113f0565b5b9250929050565b5f5f5f604084860312156114605761145f6113ad565b5b5f61146d868287016113d4565b935050602084013567ffffffffffffffff81111561148e5761148d6113b1565b5b61149a868287016113f4565b92509250509250925092565b5f6020820190506114b95f830184611377565b92915050565b6114c88161136e565b81146114d2575f5ffd5b50565b5f813590506114e3816114bf565b92915050565b5f602082840312156114fe576114fd6113ad565b5b5f61150b848285016114d5565b91505092915050565b5f8115159050919050565b61152881611514565b82525050565b5f6020820190506115415f83018461151f565b92915050565b5f73ffffffffffffffffffffffffffffffffffffffff82169050919050565b5f61157082611547565b9050919050565b61158081611566565b82525050565b5f6020820190506115995f830184611577565b92915050565b7f4e487b71000000000000000000000000000000000000000000000000000000005f52602160045260245ffd5b600481106115dd576115dc61159f565b5b50565b5f8190506115ed826115cc565b919050565b5f6115fc826115e0565b9050919050565b61160c816115f2565b82525050565b5f6020820190506116255f830184611603565b92915050565b61163481611566565b811461163e575f5ffd5b50565b5f8135905061164f8161162b565b92915050565b5f6020828403121561166a576116696113ad565b5b5f61167784828501611641565b91505092915050565b5f82825260208201905092915050565b7f556e617574686f72697a65643a204e6f7420746865204f776e657200000000005f82015250565b5f6116c4601b83611680565b91506116cf82611690565b602082019050919050565b5f6020820190508181035f8301526116f1816116b8565b9050919050565b7f5661756c7420697320696e20736563757269747920636f6f6c646f776e2070685f8201527f6173650000000000000000000000000000000000000000000000000000000000602082015250565b5f611752602383611680565b915061175d826116f8565b604082019050919050565b5f6020820190508181035f83015261177f81611746565b9050919050565b7f5661756c74206973204c6f636b65642064756520746f204869676820546872655f8201527f6174000000000000000000000000000000000000000000000000000000000000602082015250565b5f6117e0602283611680565b91506117eb82611786565b604082019050919050565b5f6020820190508181035f83015261180d816117d4565b9050919050565b7f4e487b71000000000000000000000000000000000000000000000000000000005f52601260045260245ffd5b7f4e487b71000000000000000000000000000000000000000000000000000000005f52601160045260245ffd5b5f6118788261136e565b91506118838361136e565b92508261189357611892611814565b5b828204905092915050565b7f5769746864726177616c2065786365656473206c696d697420666f7220456c655f8201527f766174656420546872656174204c6576656c0000000000000000000000000000602082015250565b5f6118f8603283611680565b91506119038261189e565b604082019050919050565b5f6020820190508181035f830152611925816118ec565b9050919050565b7f496e73756666696369656e74206163746976652062616c616e636500000000005f82015250565b5f611960601b83611680565b915061196b8261192c565b602082019050919050565b5f6020820190508181035f83015261198d81611954565b9050919050565b5f81905092915050565b50565b5f6119ac5f83611994565b91506119b78261199e565b5f82019050919050565b5f6119cb826119a1565b9150819050919050565b7f5472616e73666572206661696c656400000000000000000000000000000000005f82015250565b5f611a09600f83611680565b9150611a14826119d5565b602082019050919050565b5f6020820190508181035f830152611a36816119fd565b9050919050565b5f611a478261136e565b9150611a528361136e565b9250828201905080821115611a6a57611a69611841565b5b92915050565b7f556e617574686f72697a65643a204f6e6c7920536f6d6e696120456e67696e655f82015250565b5f611aa4602083611680565b9150611aaf82611a70565b602082019050919050565b5f6020820190508181035f830152611ad181611a98565b9050919050565b7f556e617574686f72697a65643a20454f412063616e6e6f742073706f6f6620655f8201527f6e67696e65000000000000000000000000000000000000000000000000000000602082015250565b5f611b32602583611680565b9150611b3d82611ad8565b604082019050919050565b5f6020820190508181035f830152611b5f81611b26565b9050919050565b5f611b7082611547565b9050919050565b611b8081611b66565b8114611b8a575f5ffd5b50565b5f81359050611b9b81611b77565b92915050565b5f5f5f60608486031215611bb857611bb76113ad565b5b5f611bc586828701611b8d565b9350506020611bd686828701611b8d565b9250506040611be7868287016114d5565b9150509250925092565b5f611bfb8261136e565b9150611c068361136e565b9250828202611c148161136e565b91508282048414831517611c2b57611c2a611841565b5b5092915050565b5f81519050919050565b8281835e5f83830152505050565b5f601f19601f8301169050919050565b5f611c6482611c32565b611c6e8185611680565b9350611c7e818560208601611c3c565b611c8781611c4a565b840191505092915050565b5f608082019050611ca55f830187611603565b611cb26020830186611377565b611cbf6040830185611377565b8181036060830152611cd18184611c5a565b905095945050505050565b7f4175746f2d526573637565204661696c656400000000000000000000000000005f82015250565b5f611d10601283611680565b9150611d1b82611cdc565b602082019050919050565b5f6020820190508181035f830152611d3d81611d04565b9050919050565b5f606082019050611d575f830186611377565b611d646020830185611577565b611d716040830184611377565b94935050505056fe435249544943414c3a204d617373697665204e6574776f726b20447261696e204465746563746564a264697066735822122011356c6a19e1e199a1c93e20490037d9ba6afd983549edf3f73ec4e25ab61a6364736f6c634300081c0033",
  "linkReferences": {},
  "deployedLinkReferences": {},
  "immutableReferences": {},
  "inputSourceName": "project/contracts/FluxVault.sol",
  "buildInfoId": "solc-0_8_28-60a40609515e5ea90948c9334aa1eadd4c7ad4d3"
}